{
  "_format": "hh-sol-artifact-1",
  "contractName": "ContentVerifier",
  "sourceName": "contracts/ContentVerifier.sol",
  "abi": [
    {
      "anonymous": false,
      "inputs": [
        {
          "indexed": true,
          "internalType": "bytes32",
          "name": "contentHash",
          "type": "bytes32"
        },
        {
          "indexed": true,
          "internalType": "address",
          "name": "verifier",
          "type": "address"
        },
        {
          "indexed": false,
          "internalType": "uint256",
          "name": "timestamp",
          "type": "uint256"
        }
      ],
      "name": "ContentVerified",
      "type": "event"
    },
    {
      "inputs": [
        {
          "internalType": "string",
          "name": "content",
          "type": "string"
        }
      ],
      "name": "isVerified",
      "outputs": [
        {
          "internalType": "bool",
          "name": "",
          "type": "bool"
        },
        {
          "internalType": "uint256",
          "name": "",
          "type": "uint256"
        }
      ],
      "stateMutability": "view",
      "type": "function"
    },
    {
      "inputs": [
        {
          "internalType": "bytes32",
          "name": "",
          "type": "bytes32"
        }
      ],
      "name": "verifiedContent",
      "outputs": [
        {
          "internalType": "bool",
          "name": "verified",
          "type": "bool"
        },
        {
          "internalType": "uint256",
          "name": "timestamp",
          "type": "uint256"
        }
      ],
      "stateMutability": "view",
      "type": "function"
    },
    {
      "inputs": [
        {
          "internalType": "string",
          "name": "content",
          "type": "string"
        }
      ],
      "name": "verifyContent",
      "outputs": [],
      "stateMutability": "nonpayable",
      "type": "function"
    }
  ],
  "bytecode": "0x608060405234801561001057600080fd5b5061060d806100206000396000f3fe608060405234801561001057600080fd5b50600436106100415760003560e01c806322453b3a14610046578063234c76d514610062578063e806abd014610093575b600080fd5b610060600480360381019061005b919061035c565b6100c4565b005b61007c6004803603810190610077919061035c565b6101fc565b60405161008a929190610443565b60405180910390f35b6100ad60048036038101906100a89190610333565b610285565b6040516100bb929190610443565b60405180910390f35b6000816040516020016100d7919061042c565b60405160208183030381529060405280519060200120905060008082815260200190815260200160002060000160009054906101000a900460ff1615610152576040517f08c379a00000000000000000000000000000000000000000000000000000000081526004016101499061046c565b60405180910390fd5b60405180604001604052806001151581526020014281525060008083815260200190815260200160002060008201518160000160006101000a81548160ff021916908315150217905550602082015181600101559050503373ffffffffffffffffffffffffffffffffffffffff16817f28ebb407c6acfbdf3d2ab6c93c1efa48effaae2a59841f4742a7305ff6834201426040516101f0919061048c565b60405180910390a35050565b600080600083604051602001610212919061042c565b60405160208183030381529060405280519060200120905060008060008381526020019081526020016000206040518060400160405290816000820160009054906101000a900460ff16151515158152602001600182015481525050905080600001518160200151935093505050915091565b60006020528060005260406000206000915090508060000160009054906101000a900460ff16908060010154905082565b60006102c96102c4846104d8565b6104a7565b9050828152602081018484840111156102e157600080fd5b6102ec84828561054f565b509392505050565b600081359050610303816105c0565b92915050565b600082601f83011261031a57600080fd5b813561032a8482602086016102b6565b91505092915050565b60006020828403121561034557600080fd5b6000610353848285016102f4565b91505092915050565b60006020828403121561036e57600080fd5b600082013567ffffffffffffffff81111561038857600080fd5b61039484828501610309565b91505092915050565b6103a68161052f565b82525050565b60006103b782610508565b6103c18185610524565b93506103d181856020860161055e565b80840191505092915050565b60006103ea601883610513565b91507f436f6e74656e7420616c726561647920766572696669656400000000000000006000830152602082019050919050565b61042681610545565b82525050565b600061043882846103ac565b915081905092915050565b6000604082019050610458600083018561039d565b610465602083018461041d565b9392505050565b60006020820190508181036000830152610485816103dd565b9050919050565b60006020820190506104a1600083018461041d565b92915050565b6000604051905081810181811067ffffffffffffffff821117156104ce576104cd610591565b5b8060405250919050565b600067ffffffffffffffff8211156104f3576104f2610591565b5b601f19601f8301169050602081019050919050565b600081519050919050565b600082825260208201905092915050565b600081905092915050565b60008115159050919050565b6000819050919050565b6000819050919050565b82818337600083830152505050565b60005b8381101561057c578082015181840152602081019050610561565b8381111561058b576000848401525b50505050565b7f4e487b7100000000000000000000000000000000000000000000000000000000600052604160045260246000fd5b6105c98161053b565b81146105d457600080fd5b5056fea2646970667358221220ea4ca76e9023ca97d4b01793035f622b7ec10d66267922787346684ad66fd18464736f6c63430008000033",
  "linkReferences": {},
  "deployedLinkReferences": {}
}